:020000040800F2
:10000000400D0020A5010008DF2F0008C52D0008C5
:10001000DD2F0008911900089D360008000000003F
:100020000000000000000000000000000B3100088C
:10003000FB19000800000000B53000087531000809
:10004000BF010008BF010008BF010008BF01000890
:10005000BF010008BF010008BF010008BF01000880
:10006000BF010008BF010008BF010008BF01000870
:10007000BF010008BF010008AD190008B919000848
:10008000BF010008C5190008BF010008BF01000832
:10009000BF010008BF010008BF010008BF01000840
:1000A000BF010008D9310008BF010008BF010008E6
:1000B000BF010008E531000800000000BF01000892
:1000C000BF0100080000000000000000BF010008A0
:1000D000000000008536000891360008000000008E
:1000E000BF010008BF010008BF01000800F002F8CE
:1000F00000F048F80AA090E8000C82448344AAF17A
:100100000107DA4501D100F03DF8AFF2090EBAE877
:100110000F0013F0010F18BFFB1A43F0010318473B
:10012000943F0000B43F0000103A24BF78C878C163
:10013000FAD8520724BF30C830C144BF04680C60ED
:10014000704700000023002400250026103A28BF35
:1001500078C1FBD8520728BF30C148BF0B60704739
:100160001FB500F039FB04000020002103F064FDFE
:10017000401C60600020002103F048FDE0601FBDCE
:1001800010B510BD00F06AFD1146FFF7E9FF03F05E
:1001900039FC00F0C7FF03B4FFF7F2FF03BC01F026
:1001A0002DF800000948804709480047FEE7FEE7B0
:1001B000FEE7FEE7FEE7FEE7FEE7FEE7FEE7FEE717
:1001C00004480549054A064B70470000D73100082E
:1001D000ED00000840070020400D002040090020ED
:1001E000400900200FB400B58DB010A9099000910E
:1001F0000B904FF0FF300A9000200C900648784496
:100200000690064878446A4607900F9909A800F0BE
:10021000B3FA0DB05DF814FB97050000AF050000C0
:100220004FF0000200B5134694469646203922BF8F
:10023000A0E80C50A0E80C50B1F12001BFF4F7AFDA
:10024000090728BFA0E80C5048BF0CC05DF804EBBC
:10025000890028BF40F8042B08BF704748BF20F82A
:10026000022B11F0804F18BF00F8012B7047704728
:10027000704770472DE9FF4F06468BB00878FF287E
:1002800006D0491C2D2805D000244FF0000908E0B5
:1002900000200CE00124F8E709EB8903491C00EB7E
:1002A00043090878FF28F7D114B1C9F1000081464D
:1002B000107800252C46AA4629462D2801D02B2847
:1002C00004D1521C2D2813D0002082468B46107872
:1002D000FF280FD04FF0000C0A21521CA5FB01781B
:1002E00004FB018105FB0C11C5194BEB0104EEE782
:1002F0000120EAE7002108464FF00000BAF1000FA4
:1003000002D000EB80004008C0F38157012F01DDCF
:100310004FF0FF370E9955EA040009EB01080BD0A6
:100320004FF0020918F5FA7F16DA4FEACA70002F6B
:10033000706008DD012007E04FEACA70C6E900B02E
:100340000FB0BDE8F08F0020306000F049FAC0F82F
:1003500000901821084616E0B8F5FA7F18DD002F46
:1003600002DAF748784401E0F6487844D0E9001012
:10037000C6E9001040EACA70706000F031FAC0F8B7
:100380000090142108460FB0BDE8F04F03F0B1BD56
:10039000002108464FF00000B8F10001099002DA90
:1003A000C7F1000200E03A4601DAC8F1000106A8F0
:1003B00000F0DEFB06AB93E8070003AB83E8070021
:1003C00044F23E005BEA04010090584604D144F236
:1003D0001E012C465D460091210C0904014306D103
:1003E0000099240444EA15442D041039009104F0C6
:1003F0007F41014306D10099240244EA15642D028D
:100400000839009104F07041014306D1009924019C
:1004100044EA15742D01091F009104F04041014385
:1004200006D10099A40044EA9574AD00891E00919C
:1004300004F00041084304D100986D196441401E46
:1004400000904FF001033A466846B8F1000FCDE93D
:10045000014503A902DD01F064F901E001F037F97B
:10046000BAF1000F04460D4601D084F0004400218B
:1004700008464FF00000099940F2FF77484010F01D
:100480000C0F07D124F00040284303D0C4F30A50D6
:10049000B84212D100F0A4F9C0F80090C4F30A5099
:1004A000B8420AD1A8487844D0E90010C6E9001043
:1004B00004F000410843706042E7C6E900543FE79A
:1004C0002DE9FF4F1F464FF0000A4FF0FF38454619
:1004D00091B0D7E90146CDF83CA000F07DF9C068A5
:1004E0000168405C1090B96912986D1C8847396AA0
:1004F000814688470028F6D1B9F1FF3F0AD0002E87
:1005000024F4D06411DDB9F12B0F08D0B9F12D0F0F
:100510000BD102E0404615B013E744F48064B9699A
:1005200012986D1C8847761E8146600504A901D586
:100530002D2000E02B20002E01F1010B0DF13008E1
:100540008DF810003FDDB9F1690F08D0B9F1490FFE
:1005500005D0B9F16E0F02D0B9F14E0F1CD13B4658
:1005600001A8009580E85002DDE912126FF0020048
:1005700003F026FDC11CCED10EE0B96912986D1CA6
:10058000884781461398761E44F4007405600F98DE
:10059000401C002E0F9016DDB9F1300FEDD0B9F1EF
:1005A000780F02D0B9F1580F0DD10F9801280AD158
:1005B0003B46CDE90054DDE91212001F029603F01C
:1005C000FDFCC11CA7D1109989453ED144F080049F
:1005D00006E01399681CAAF1010A44F4007408604B
:1005E000B9696D1C1298761E884730288146F0D074
:1005F0002BE01099894505D1200603D4761E44F0DE
:10060000800418E0484603F0DAF808B3761E0DF1CE
:1006100023018B4544F4007408D2A9F130000BF893
:10062000010B200607D5AAF1010003E0200602D441
:100630000AF101008246A00502D51399681C0860E2
:10064000B96912986D1C88478146002ED1DC53E0B1
:10065000002E51DDB9F1650F02D0B9F1450F4BD134
:10066000A00549D5B9696D1C1298761E24F4407412
:100670008847002E81460CDD2B2804D0B9F12D0FC0
:1006800007D144F48074B96912986D1C8847761EAE
:100690008146E00501D52D2100E02B2108F8011B42
:1006A000CDF8008021E0761E0DF13901884544F433
:1006B00000740CD2A9F1300010F0FF0088F800009F
:1006C00002D10099884509D908F1010806E0E00542
:1006D00001D51E4801E042F20F708246B9691298B6
:1006E0006D1C8847814613980560002E04DD48463E
:1006F00003F065F80028D6D1F96912988847FF20E1
:1007000053468BF8000088F8000000200A900B90F8
:1007100004AA0CA90AA8FFF7ADFDA00502D46FF04A
:100720000100F8E614F0240F12D0E0071CD138685D
:10073000DDE90A12031D3B600068C0E9001213E006
:10074000743D0000663D00002A3C0000F1D8FFFF28
:100750000AA9684602F0C2FFE00705D13868009A8E
:10076000011D3960006802602846D4E60268114421
:100770001378016018467047D1600549794451618A
:1007800004497944116200211161114600F036B824
:10079000EDFFFFFF63000000426842B1016811F8FD
:1007A000013B23B1521EC0E90012184670470121D7
:1007B000C160881E704742685AB1C368016843B976
:1007C00083688B4205D0491E521CC0E900120020EC
:1007D00070474FF0FF307047004870470007002017
:1007E00000487047E006002010B5044600F05CFAAF
:1007F0000068005D00F0010010BD00002DE9F34F1E
:100800004FF0000A0C4656468DB001200C9001F1C5
:100810000C000B9062690B9801219047051E2DD0AA
:10082000252D2CD0216A8847C0B162690B9801211F
:100830009047216A88470028F7D16269411E0B98CA
:10084000904700E0761CA1690D988847216A884787
:100850000028F7D1E1690D988847DBE7A1690D9879
:100860008847A842074601D1761CD3E7E1690D9875
:1008700088477F1C02D1BAF1000F6FD06CE162692A
:100880000B9800273D46394690472A2804D16269D3
:100890000B98012190470125DFF8D08262690B98FF
:1008A00001219047A0F130010A290AD24745E5DC31
:1008B00007EB870100EB4107303FDFD445F010051F
:1008C000ECE7E90601D46FF000476C280AD04C2809
:1008D00014D0682815D06A280DD074281CD07A2826
:1008E0001AD01DE062690B98012190476C2802D054
:1008F00045F0040514E045F002050DE045F0200543
:100900000AE062690B9801219047682802D045F0FF
:10091000080505E045F4006562690B9801219047E0
:10092000C4E9015765283DD019DC58287AD00CDC81
:10093000452837D004DC252826D041289ED131E037
:1009400046282FD0472899D12CE05B2877D0612802
:1009500028D063287CD0642823D15AE0F7E06F28A0
:1009600048D008DC66281DD067281BD0692821D014
:100970006E2816D127E0702845D0732868D07528D6
:1009800047D078280DD14DE0A1690D9888472528DA
:1009900005463FF469AFE1690D9888476D1C3FF447
:1009A0006AAFD9E00D9923466A466FF0010003F063
:1009B00003FBC6E045F0400023464FF000026060B4
:1009C000A80736D43EE0E8077FF447AF2068011D52
:1009D00021600068290501D506701BE7290701D5AC
:1009E000068017E7A90703D5F117C0E9006111E7F1
:1009F00006600FE745F0400023464FF008026060B4
:100A0000A80716D41EE040F60E0125EA010060603A
:100A100016E045F0400023464FF00A026060A80748
:100A200007D40FE045F040006060A80708D52346D2
:100A300010220D996FF00100AFF3008081E007E014
:100A4000102223460D996FF00100AFF3008078E08B
:100A50004FF0000963284F46C8464B46CB4602D0AC
:100A60005B2807D039E02079C00601D40120A060BE
:100A7000012732E06269D4F80CB00B98012190474D
:100A80005E2807D14FF0010949466269D4F80CB0DD
:100A90000B989047216939B900210A4603AB43F806
:100AA0002120491C0829FADBD8B3216949B308F190
:100AB000010862690B98012190475D28F4D1B9F1D2
:100AC000000F09D0002003A951F82020D24341F89B
:100AD0002020401C0828F7DB03AB20690028207980
:100AE0004FEA40701ED05B462246CDF80080CDE92B
:100AF00001970D9900286FF0010020DAAFF3008014
:100B00001FE0C11703AA00EBD1614B1121F01F01B7
:100B100002EB8302411A13680120884003431360EB
:100B2000C7E719E00D99224600286FF001000097F1
:100B300002DAAFF3008004E0AFF3008001E0AFF32E
:100B4000008000280ADA401C06D10C9820B14FF032
:100B5000FF300FB0BDE8F08F5046FAE7E90701D14A
:100B60000AF1010A064400200C9053E6CCCCCC0CD0
:100B70002DE9F047814616468AB0354878440DC8BD
:100B80008DE80D0032487844801C03AC0DC884E821
:100B90000D0041F69B300844372190FBF1F290FBA9
:100BA000F1F5A5F1800501FB12041B3C02D564425E
:100BB000012000E00020DFF898A080460027FA44DA
:100BC000AAF1BE0A0EE0E0070AD03246684607EBFB
:100BD000470101230AEB810100F08EFD8DE807003B
:100BE00064107F1C002CEED1194F7F44AE3F19E0FA
:100BF000E80715D007EB04100DF1180A90E80E0075
:100C00008AE80E00C068F04201D198190890324677
:100C1000012306A903A800F06FFD03AB83E80700DA
:100C20006D10641C002DE3D14FF00103324669467C
:100C3000B8F1000F03A802D000F034FD01E000F08D
:100C40005BFDC9E90001C9F808200AB0BDE8F087DA
:100C50001C35000000487047E00600207546FFF78D
:100C6000F9FFAE4605006946534620F00700854669
:100C700018B020B5FFF7A4FABDE820404FF00006F9
:100C80004FF000074FF000084FF0000B21F0070174
:100C9000AC46ACE8C009ACE8C009ACE8C009ACE8B7
:100CA000C0098D467047000010B5FFF795FD001D87
:100CB00010BD00BF852F000010B5FFF791FD006843
:100CC00010BD10B50446FFF78BFD046010BD000099
:100CD0002DE9FF4F1F464FF03C0987B04FF000420F
:100CE000DDE9141001F10108DDF858A002EA4050D6
:100CF0000390002005908346054604460490B96998
:100D0000461E08988847AAF1010A0290BAF1000F1E
:100D10003BDD02982E2815D0102100F060FA002843
:100D20002EDB4FF0010B0599014317D0B9F1000FED
:100D30000BDB4A46C11700F03FFA05430C43A9F10B
:100D4000040905E0012004900BE008B145F001051D
:100D500001200590049820B9361D02E0049800B1E6
:100D6000361FB969089808F101088847BBF1000FE0
:100D7000AAF1010A0290C9D00999C1F80080C5E71B
:100D80000298702808D0502806D0F969089888473A
:100D9000BBF1000F14D04FE0002002900120BBF106
:100DA000000F049009D0B969089808F10108884734
:100DB000AAF10109B9F1000F07DCF9690898884721
:100DC0006FF001000BB0BDE8F08F2B2804D02D2868
:100DD0000CD14FF0FF300490B969089808F1010870
:100DE0008847A9F10109B9F1000FE6DD411CE4D003
:100DF0000A2100F0F4F90028DFDB029908F101086C
:100E000001EB810100EB41000290B9690898884725
:100E10000A2100F0E4F9099AA9F10109B9F1000FDA
:100E2000C2F8008001DD0028E7DAF96908988847F0
:100E30000499029800FB016655EA040004D004F00E
:100E40004041090002D006E0039898E0A40044EA7B
:100E50009574AD00B61E04F00041080002D16D1972
:100E60006441761E159810F0240F03D04FF00B0943
:100E70005C4803E04FF028096FF07D00824656453C
:100E800007DAAAEB06018944B9F1410F01DD4FF001
:100E9000410901200021A9F1010200F08DF902466B
:100EA00028400B462140084301D0012100E00021E9
:100EB000501E029143F1FF3128402140084301D0E8
:100EC000012000E000200299834651EA0B014FD037
:100ED000002108464FF00000039900F4400039B1AA
:100EE00000EB80004FF4400100EBD07001EA60009D
:100EF0008015012802DD4FF0FF3000E013D0401CC8
:100F000036D0029860B3BBF1000F0CD14A460120E5
:100F1000002100F051F928402140084301D0012070
:100F200000E00020E0B101204A46002100F044F931
:100F3000034640190A4661412D1A8C4111D3B9F17B
:100F4000400F09DD159810F0240F02D0AAF13406E5
:100F500003E0AAF1170600E0761C00254FF00044DC
:100F600006E05B1E42F1FF3220EA030521EA02049B
:100F7000CAF10100B04206DA1B4903980843019008
:100F8000002000900EE0039AC4F3D321E80A0A433C
:100F9000164940EA44500A433146CDE9000268460A
:100FA00002F002FC159810F0240F0BD01598C00722
:100FB00015D13868DDE90012031D3B600068C0E907
:100FC00000120CE002A8694602F088FB1598C007E1
:100FD00005D13868029A011D3960006802604046F8
:100FE000F0E6000002FCFFFF0000F07F0000F03F91
:100FF0002DE9FF4F92461D4685B04FF00041DDE9D7
:10100000124BDDE914727F1E01EA4B50414940F05A
:10101000FF4940EA0108002122F0200049280491FC
:1010200002D04E2828D04CE03BA0012607C88DE80E
:101030000700A9690698641C88477F1E014606D4EC
:101040001DF8060018B121F0200181420BD0E9699A
:1010500006988847032E34D0082E32D06FF0010056
:1010600009B0BDE8F08F761C032E01D0082EE0D128
:10107000601CCAF80000DCE7A9690698641C884770
:101080007F1E2AD420F02000412826D1A969069885
:10109000641C88477F1E20D420F020004E281CD1DD
:1010A000A9690698641C88477F1E48F4002849F403
:1010B0008009CAF8004001D4282806D0E9690698BA
:1010C00088475FEACB7012D022E0A9690698641CB9
:1010D00088477F1E01D4002803DAE969069888470B
:1010E000BCE72928F1D1641CCAF80040E9E71BF0ED
:1010F000240F07D028680499031D2B600068C0E9FD
:10110000001805E02868021D2A600068C0F80090F9
:101110002046A5E70000F07F494E46494E49545904
:101120000000000010B50446AFF300802046BDE883
:101130001040FFF730B800004FF0013C50F8042B8E
:1011400051F8043B9A4221D1A2EB0C03934313EADA
:10115000CC1317D150F8042B51F8043B9A4215D107
:10116000A2EB0C03934313EACC130BD150F8042BDE
:1011700051F8043B9A4209D1A2EB0C03934313EAC2
:10118000CC13DBD04FF00000704700BFD01A01BA7B
:10119000B1FA81F101F0180122FA01F0CB40C1F15E
:1011A0002001DBB2C0B2C01A2CFA01F3D11A91436C
:1011B00011EAC311E6D17047B2F120030AD5C2F19A
:1011C000200301FA02F120FA03F300FA02F041EAE7
:1011D0000301704700FA03F14FF0000070473A280E
:1011E00000D2303820F02002412A01D3A2F137008A
:1011F000884201D34FF0FF307047000001491820AA
:10120000ABBEFEE726000200704720F07F4C80EA6C
:10121000030023F07F47ACEB070303F57C5300F09A
:10122000004003F1FF032DE980494FEA154B09B453
:101230004FEA144325EA0B4E24EA03480FF2042632
:1012400006EB132749083E785FEA320203FB066784
:10125000C7F5000707FB06F64FEA54374FEAD646B4
:1012600006F1020607FB066CCCF1005C4FEA1C4756
:101270002CEA074C07FB06F40CFB06F504EB1546BD
:101280004FEA961634BF00204FF000404FEAD137A6
:1012900006FB07FC4FEA1C4C0CFB0BF7D21B03FBB5
:1012A0000CF761EB07010CFB0EF7B0EB074072EB9C
:1012B00017420CFB08F734BFA2EB0742B2EB074220
:1012C00061EB17414FEA0C444FEA910706FB07FC1C
:1012D0004FEA1C4C0CFB0BF7B0EBC74072EB5732DC
:1012E00003FB0CF734BFA2EBC742B2EBC74261EB82
:1012F00057310CFB0EF7B0EBC70072EB57720CFBCB
:1013000008F734BFA2EBC702B2EBC70261EB57711B
:10131000039F4FEA816141EA921104EBCC044FEA4A
:10132000D1374FEA826206FB07FC42EA90124FEA8D
:1013300080604FEA1C4C0CFB0BF7D21B03FB0CF735
:1013400061EB07010CFB0EF7B0EB074072EB1742A5
:101350000CFB08F734BFA2EB0742B2EB074261EB8C
:1013600017414FEA8C554FEA910704EB9C2406FB8A
:1013700007FC4FEA1C4C0CFB0BF7B0EBC74072EBC1
:10138000573203FB0CF734BFA2EBC742B2EBC742A4
:1013900061EB57310CFB0EF7B0EBC70072EB5772E5
:1013A0000CFB08F734BFA2EBC702B2EBC70261EB3C
:1013B000577115EB4C254FEA816141EA92114FEAD2
:1013C00082624FEAD13742EA901206FB07FC44F1F1
:1013D00000044FEA80604FEA1C4C0CFB0BF7D21B59
:1013E00003FB0CF761EB07010CFB0EF7B0EB0740BA
:1013F00072EB17420CFB08F734BFA2EB0742B2EBCB
:10140000074261EB174115EB1C154FEA813141EAA8
:1014100092414FEA823242EA90424FEA80304FEAEC
:101420000C7644F1000448EA03434EEA0B484FF0BF
:10143000000EB2EB080C71EB030724BF624639467D
:101440004EEB0E0E4FF0000B0018524149414BEB92
:101450000B0BB2EB080C71EB03077BF1000B24BF05
:10146000624639464EEB0E0E4FF0000B001852410B
:1014700049414BEB0B0BB2EB080C71EB03077BF113
:10148000000B24BF624639464EEB0E0E51EA0207AE
:1014900018BF46F0010616EB0E7655F1000254F126
:1014A000000103D5BDE88901BDE80088BDE88901D8
:1014B000BDE80048B619524141EB0101A3F1010317
:1014C000704780807F7E7D7C7B7A797877767675B1
:1014D0007473727171706F6E6E6D6C6C6B6A6A6929
:1014E0006868676666656464636362616160605FC3
:1014F0005F5E5E5D5D5C5C5B5B5A5A59595858573C
:1015000057565655555554545353525252515150A3
:1015100050504F4F4F4E4E4D4D4D4C4C4C4B4B4BF6
:101520004A4A4A494949484848474747474646463C
:101530004545454444444443434343424242424177
:101540004141000046EA0646A3F570534FEA1646AD
:1015500046EA42564FEAD22242EA415210B54FEAD9
:10156000D121A3F1010300F02FF820F0004000F199
:10157000020C00F0004701EB00501146BCF5006F73
:1015800040EA070000D210BDBAF1000F0AD01CB526
:1015900003B44FF004004FF004014FF000000FBC03
:1015A000BDE810404FF00001BBF1010FB9BF044886
:1015B0004FF0FF310348002140EA070010BD00BF93
:1015C000FFFFEF7F0000F07F002B9C4630D47700B8
:1015D0002BD01CB54FEA370703B44FF010004FF083
:1015E0001001BAF1000F06D0BCF1000FDCBF40F0D3
:1015F000080040F008014FF000000FBCBDE81040AB
:101600000BF1010BBBF1010F08BF5FEA170722BF07
:1016100012F1010211F101014FF0004143F1000309
:1016200000F0004043EA00007047F9D35708D0E7C4
:1016300046EA064613F1400F4FEA16461FDD13F146
:10164000200FDFBF16430A46002120335B42BED085
:10165000C3F1200746EA064602FA07F74FEA1646A4
:1016600046EA0706C3F1200722FA03F201FA07F758
:1016700021FA03F14FF0000342EA0702A7E746EA26
:10168000020646EA06464FEA164646EA0106BCBF8F
:1016900046EA0646360C4FF000034FF000024FF0CA
:1016A000000194E72DE9804C9A46934670B491E886
:1016B000380007C831EA400C48BF34EA430C03D570
:1016C000FFF7A3FDFFF780FFF0BCBDE8008C2DE91C
:1016D000804C9A46934670B491E8380007C831EAC6
:1016E000400C48BF34EA430C03D5FFF78EFDFFF7EB
:1016F00029FFF0BCBDE8008C2DE9804C9A4693464A
:1017000070B491E8380007C810F0804F08BF13F09C
:10171000804F03D100F01AF8FFF756FFF0BCBDE888
:10172000008C2DE9804C9A46934670B491E83800BD
:1017300007C810F0804F08BF13F0804F03D100F0AE
:1017400005F8FFF7FFFEF0BCBDE8008C20F07F47F6
:1017500080EA030023F07F4C07EB0C03A3F57C53D6
:1017600000F00040A3F1FE0392F0000F00F0B38000
:1017700095F0000F00F077802DE901494FEA114004
:101780004FEA144621EA004800FB06FC24EA06471B
:1017900008FB06F607FB08F800FB07F718EB0648FE
:1017A0004CEB164C4FEA124B18EB07484FEA154624
:1017B0004CEB174022EA0B4E0BFB06FC25EA0647D2
:1017C0000EFB06F607FB0EFE0BFB07F71EEB064EA5
:1017D0004CEB164C4FF000061EEB074E4CEB174B34
:1017E00018EB0B0840F1000018EB0E0B58EB00084B
:1017F00040F100008F1A4FF000013CBFC943661B47
:1018000014BFB5EB040C00213CBFC943F61B4FEAE3
:1018100017444EEA8E0E27EA04454FEA1C4704FBA4
:1018200007622CEA074C05FB07F70CFB05F604FBE7
:101830000CFC16EB074642EB174216EB0C4642EB4C
:101840001C421BEB060658EB0202414146EA9E068B
:1018500001D5BDE80189B619524141EB0101A3F15F
:101860000103BDE801894FEA14454FEA114724EA14
:10187000054621EA074C05FB07F406FB07F70CFBBE
:1018800006F105FB0CFC11EB074144EB17444FEA52
:10189000124711EB0C4144EB1C4422EA074C05FBB8
:1018A00007F206FB07F70CFB06F605FB0CFC16EB34
:1018B000074642EB174216EB0C4642EB1C456A18F2
:1018C00054F1000148BF7047B619524141EB010184
:1018D000A3F10103704795F0000F37D04FEA114292
:1018E0004FEA144721EA024624EA074C02FB07F1BB
:1018F00006FB07F70CFB06F402FB0CFC14EB074499
:1019000041EB17414FEA154714EB0C4441EB1C41E6
:1019100025EA074C02FB07F506FB07F70CFB06F66A
:1019200002FB0CFC16EB074645EB174516EB0C4685
:1019300045EB1C42121951F1000148BF7047B6191E
:10194000524141EB0101A3F1010370474FEA1445F5
:101950004FEA114724EA054621EA074C05FB07F147
:1019600006FB07F70CFB06F24FF0000605FB0CFC2C
:1019700012EB074241EB174112EB0C4251EB1C41B9
:1019800048BF7047921841EB0101A3F10103704772
:10199000FEE7024610B500200221937803E0545C74
:1019A0006040491CC9B28B42F9D210BD014800F019
:1019B00097B80000B0010020014800F091B8000085
:1019C0006C010020014800F08BB80000F4010020F9
:1019D00030B590F840500124AC40C56B6C60046891
:1019E00063604368102B036803D099600068C2608D
:1019F00030BD9A600068C16030BD704772B6FEE7C6
:101A000010B590F821100022022905D0042181632D
:101A100080F82020012010BD01680B6823F00E0320
:101A20000B6001680B6823F001030B6090F84030F5
:101A3000C46B012101FA03F3636080F8211080F880
:101A40002020104610BD000010B590F82110002491
:101A5000022903D00421816301243DE001680A6862
:101A600022F00E020A6001680A6822F001020A6090
:101A70001A4A0168914201D1012121E0174A14322A
:101A8000914201D110211BE0144A2832914201D128
:101A9000891515E0114A3C32914201D189140FE0B9
:101AA0000E4A5032914202D14FF4803108E00B4A85
:101AB0006432914202D14FF4801101E04FF0807105
:101AC000064A083A5160012180F82110002180F86F
:101AD0002010416B01B18847204610BD080002402C
:101AE0002DE9F05FC16B0C6801680B68D0F840C04D
:101AF000042202FA0CF2494DDFF824A1494E4A4F64
:101B0000DFF828B1DFF828E122422CD05A072AD585
:101B10000A68920603D40A6822F004020A60016887
:101B2000A94201D1042219E0514501D1402215E01A
:101B3000B14202D14FF4806210E0B94202D14FF4B9
:101B400080420BE0594502D14FF4802206E07145F6
:101B500002D14FF4800201E04FF080622F49083932
:101B60004A60C16A3BE04FF0020808FA0CF818EA34
:101B7000040F4FF000094FF0010235D05FEA83787F
:101B800032D50B689B0605D40B6823F00A030B6063
:101B900080F821200168A94201D1022219E05145B3
:101BA00001D1202215E0B14202D14FF4007210E0C1
:101BB000B94202D14FF400520BE0594502D14FF423
:101BC000003206E0714502D14FF4001201E04FF0FF
:101BD0000072124908394A6080F82090816A002911
:101BE0001AD0BDE8F05F0847082505FA0CF5254234
:101BF00012D01B0710D50B6823F00E030B6090F872
:101C00004010C36B02FA01F15960826380F8212011
:101C100080F82090016BE2E7BDE8F09F08000240E9
:101C20001C000240300002404400024058000240C4
:101C30006C00024030B528B308C813491422194477
:101C4000B1FBF2F18900C163104981630221417740
:101C50001A6843F6F0718A43D0E900142143D0E9B1
:101C600002452C432143046921434469214384698B
:101C7000214311431960002141630122427701771A
:101C8000084630BD012030BDF8FFFDBF0000024016
:101C900070B5044690F82000002501280CD00120E2
:101CA00084F8200094F821600020012E06D084F8EA
:101CB00020000225284670BD022070BD022684F84F
:101CC0002160A0632068066826F0010606602046B1
:101CD000FFF77EFEE06A00282068016802D041F02C
:101CE0000E0106E021F0040101602068016841F066
:101CF0000A0101602068016841F001010160D9E733
:101D00002DE9F84FDFF89C910024A9F1040B23463C
:101D10000F2709F1040AABF1040EBBE00125A54031
:101D20002A40AA4276D1DFF880C14E68A6EB0C08A3
:101D300066452BD00DDC032E34D005DC36B3012EE6
:101D400019D0022E2FD11BE0112E16D0122E2AD11F
:101D500019E0B8F5881F19D006DCB8F5803F15D01A
:101D6000B8F5801F1FD111E0B8F5001F0ED0B8F5EF
:101D7000041F18D10AE0CB6815E0CB681B1D12E0E8
:101D8000CB6808330FE0CB680C330CE08B682BB1C9
:101D9000012B4FF0080303D0456104E0042302E067
:101DA000056100E00023FF2A01D8064601E000F1AA
:101DB00004064FEA840501D9A5F12005D6F8008074
:101DC00007FA05FC28EA0C0803FA05F548EA0508B5
:101DD000C6F800804D68ED005BD5344DAE6946F025
:101DE0000106AE61AD6924F0030605F0010500951A
:101DF0002F4D06EB050CDCF80850A607360F07FA46
:101E000006F825EA0805DFF8AC80404503D14FF01D
:101E1000000810E03DE0DFF8A080404502D14FF01F
:101E2000010808E0DFF89480404502D14FF0020835
:101E300001E04FF0030808FA06F848EA0508CCF874
:101E400008804D68D9F80060ED024D4601D5164373
:101E500000E096432E604D68DAF80060AD0255460A
:101E600001D5164300E096432E604D68DBF8006014
:101E7000AD035D4601D5164300E096432E604D68E4
:101E8000DEF80060ED03754601D5164300E0964389
:101E90002E60641C0A6832FA04F57FF43FAFBDE897
:101EA000F88F0000080401400000111000100240EB
:101EB0000000014000080140000C014000100140FA
:101EC000C26821EA02030A4043EA02410161704705
:101ED0000AB1016170470904FBE70000014880680E
:101EE0007047000000000020024881680278114419
:101EF0008160704700000020074810B5016841F07C
:101F000010010160032000F075F80F2000F006F8C2
:101F100000F024F8002010BD0020024070B50D4DE7
:101F200004464FF47A712878B1FBF0F00A49096849
:101F3000B1FBF0F000F0DCFA48B9102C07D2002217
:101F40002146501E00F036F800206C6070BD012064
:101F500070BD0000000000200C0000200C4808B5F7
:101F6000816941F001018161816901F00101009104
:101F7000C16941F08051C161C06900F0805000909A
:101F80000448416821F0E06141F00071416008BD02
:101F90000010024000000140002809DB00F01F0291
:101FA000012191404009800000F1E020C0F80011BB
:101FB00070470000F0B40E4B1B680C46C3F30223BD
:101FC000C3F10705042D00D90425191D072901D2E5
:101FD000002300E0DB1E012606FA05F1491E214020
:101FE00099409E40761E16403143F0BC01F057BB2D
:101FF0000CED00E0064900F0070208684FF6FF0309
:10200000184040EA0220034A10430860704700006D
:102010000CED00E00000FA052DE9F0470F46050041
:1020200061D0434E306800F00700B84209D23068F2
:1020300020F0070038433060306800F00700B842F5
:1020400051D128683B4C810712D5400703D5606801
:1020500040F4E06060602878000703D5606840F4D1
:10206000605060606068A96820F0F000084360601C
:102070002878C00728D06868012810D02168022875
:1020800010D0890700292EDA616821F0030101438D
:102090006160FFF723FF804641F288390DE0216837
:1020A0008903EFE78901EDE7FFF718FFA0EB0801CF
:1020B000494502D90320BDE8F0876068696800F0EF
:1020C0000C00B0EB810FEFD1306800F00700B84290
:1020D0000BD9306820F0070038433060306800F0DA
:1020E0000700B84201D00120E5E72878400705D570
:1020F0006068E96820F4E0600843606028780007C1
:1021000006D56068296920F4605040EAC10060602B
:1021100000F038F86168084AC1F30311515CC84007
:102120000649086006480068FFF7F8FE0020C2E78D
:102130000020024000100240064000080C00002071
:10214000040000200448054900684968044AC1F3B6
:102150000221515CC84070470C0000200010024072
:10216000164000080448054900684968044AC1F35C
:10217000C221515CC84070470C0000200010024092
:10218000164000080E4A51680E4801F00C03042B5B
:1021900011D0082B0FD10C48C1F38343C903C05C95
:1021A0000AD55168084AC1F34041921E515C054A64
:1021B0005043B0FBF1F070470449484370470000BA
:1021C0000010024000127A00F63F000800093D00AE
:1021D0002DE9F84F040070D02078C04DC00749D0D9
:1021E0006868C0F38100012807D06868C0F38100E7
:1021F000022809D16868C00306D52868800339D54C
:1022000060680028E7D035E06068B0F5803F0BD00B
:1022100010B1B0F5A02F11D0286820F480302860CC
:10222000286820F4802002E0286840F4803028608C
:10223000606890B1FFF752FE06460AE0286840F455
:1022400080202860F0E700BFFFF748FE801B64286D
:1022500073D828688003F7D50CE0FFF73FFE0646E9
:1022600005E000BFFFF73AFE801B6428F0D828681D
:102270008003F7D420789A4E80074FF001094FF081
:10228000000839D5686810F00C0F07D06868C0F3F3
:102290008100022809D16868C00306D42868800735
:1022A00014D52069012808D110E02069B0B1C6F822
:1022B0000090FFF713FE074605E00AE1FFF70EFE68
:1022C000C01B0228C4D828688007F7D52868616930
:1022D00020F0F80040EAC10028600DE0C6F8008058
:1022E000FFF7FCFD074604E0FFF7F8FDC01B0228DE
:1022F00023D828688007F7D4207800072CD57948A0
:10230000A169D9B1C0F80090FFF7E8FD074604E0E5
:10231000FFF7E4FDC01B02280FD8686A8007F7D5D5
:1023200071484FF4FA510068B0FBF1F0009000BF23
:102330000098411E0091FAD20EE080E0C0F80080C3
:10234000FFF7CCFD074604E0FFF7C8FDC01B0228DD
:1023500075D8686A8007F7D42078400760D5E869A7
:102360000027C00008D4E86940F08050E861E869BF
:10237000012700F0805000905C480168C90513D423
:102380000168834641F480710160FFF7A7FD824632
:1023900006E000BFFFF7A2FDA0EB0A0064284ED8BC
:1023A000DBF80000C005F5D5E06801280AD008B1C7
:1023B000052813D0286A20F001002862286A20F03E
:1023C000040002E0286A40F001002862E06841F25F
:1023D000883B98B1FFF782FD82460BE0286A40F007
:1023E00004002862EEE700BFFFF778FDA0EB0A01CA
:1023F00059455AD8286A8007F6D50CE0FFF76EFDDC
:10240000824605E0FFF76AFDA0EB0A0159454CD86A
:10241000286A8007F6D41FB1E86920F08050E8618F
:10242000E06988B36968C1F38101022944D00228B8
:10243000C6F8608004D0FFF751FD044638E034E070
:10244000FFF74CFD074604E0FFF748FDC01B0228DC
:102450002BD828688001F7D4206AB0F5803F05D1D9
:102460006868A16820F4003008436860D4E9080176
:102470000843696821F4741108436860C6F86090E5
:10248000FFF72CFD044606E025E000BFFFF726FD20
:10249000001B022809D828688001F7D51BE000BF7F
:1024A000FFF71CFD001B022802D90320BDE8F88FAE
:1024B00028688001F4D40EE00128F7D06868226A09
:1024C00000F48031914204D1616A00F470108842B6
:1024D00001D00120EAE70020E8E7000000100240F8
:1024E00000004242800442420C0000200070004084
:1024F00010B5401EB0F1807F01D3012010BD4FF018
:10250000E02460610F21601701F0C9F80020A0618C
:1025100007202061002010BD7047704770B590F80B
:102520003C20012A23D0012480F83C40022280F87C
:102530003D2003685A689D6822F070060A6832439D
:102540005A600C4B02689A4205D0B2F1804F02D01B
:10255000094B9A4204D1496825F0800319439160E0
:1025600080F83D40002180F83C10084670BD0220F4
:1025700070BD0000002C01400004004010B50400B4
:1025800003D094F83D0010B107E0012010BD0020F9
:1025900084F83C00204600F01FF8022084F83D003B
:1025A000211D206800F024FE012084F8460084F8F4
:1025B0003E0084F83F0084F8400084F8410084F82D
:1025C000420084F8430084F8440084F8450084F80D
:1025D0003D00002010BD000008B5154A01681548EF
:1025E00091420ED1816941F40061816180690022CC
:1025F00000F40060009011461920FFF7DBFC192061
:1026000010E00D4A914211D1C16941F00201C1614E
:10261000C069002200F00200009011461D20FFF763
:10262000C9FC1D20BDE80840FFF7B6BC08BD00008E
:10263000002C0140001002400004004090F83D10C2
:10264000012901D001207047022180F83D10016866
:10265000CA6842F00102CA6000680A49884205D08F
:10266000B0F1804F02D00849884204D1816801F05E
:102670000701062903D0016841F001010160002033
:1026800070470000002C01400004004070B5044673
:1026900090F83C000025012817D0012684F83C6002
:1026A000022084F83D002068826822F0770222F43C
:1026B0007F4282600868502838D00DDC20284FD037
:1026C00005DC90B3102811D14AE0022070BD3028FB
:1026D00046D040280AD13BE060282FD070280DD08A
:1026E000B0F5805F03D0B0F5005F12D0012584F80B
:1026F0003D60002084F83C00284670BDCB68D1E9DD
:102700000121206800F0AAFD2068816841F077016E
:1027100009E0CB68D1E90121206800F09FFD206825
:10272000816841F480418160E1E719E0CA68496845
:10273000206800F0A5FD5021206806E0CA684968BD
:10274000206800F0AEFD6021206800F091FDCEE72A
:10275000CA684968206800F093FD40212068F4E7CA
:10276000226801461046F0E770472DE9F041044623
:102770000068C66805694FF00007A90713D5B107BF
:1027800011D5F91E0161012020772068806980073A
:10279000204602D0FFF7E8FF04E000F07EF8204674
:1027A00000F07CF82777680716D5700714D52168E4
:1027B0006FF004000861022020772068806910F41F
:1027C000407F204602D0FFF7CFFF04E000F065F81D
:1027D000204600F063F82777280715D5300713D572
:1027E00021686FF008000861042020772068C06924
:1027F0008007204602D0FFF7B7FF04E000F04DF855
:10280000204600F04BF82777E80616D5F00614D5D9
:1028100021686FF010000861082020772068C069E7
:1028200010F4407F204602D0FFF79EFF04E000F046
:1028300034F8204600F032F82777E80708D0F00790
:1028400006D021686FF001000861204600F028F8EA
:10285000280608D5300606D521686FF0800008618B
:102860002046FFF759FE680608D5700606D5216890
:102870006FF040000861204600F022F8A8060AD553
:10288000B00608D521686FF0200008612046BDE839
:10289000F041FFF742BEBDE8F0817047704700008D
:1028A0000549884207D1054801684268491C42F140
:1028B0000002016042607047940000201800002070
:1028C0007047704770470000F8B501680446086813
:1028D000CA684B6910F00F0F4FF0000559D003F094
:1028E000010602F49077374365D0C10705D0D105C2
:1028F00003D5616C41F001016164410705D5D90739
:1029000003D0616C41F002016164810705D5D907EC
:1029100003D0616C41F004016164010707D502F046
:102920002001314303D0616C41F008016164616CA6
:1029300000293AD0800604D5900602D5204600F042
:102940009CFD20684069616CC0F38010090700D4C9
:1029500060B3204600F05CFD20684069400621D548
:102960002068143050E8001F21F0400140E80012B8
:10297000002AF5D1E06BA8B16D494163E06BFFF728
:1029800063F8002811D0E06B416B01B0BDE8F04066
:10299000084783060FD593060DD52046BDE8F840BD
:1029A00000F06BBD2046FFF78DFFF8BD2046FFF716
:1029B00089FF6564F8BD266B2023012E7CD1C606F5
:1029C0007AD5D60678D508684868009048694FF0EF
:1029D0000206400640D5E16B086840680004000C20
:1029E000E8D0A28D8242E5D9E085886920282DD0E3
:1029F00020680C3050E8001F21F4807140E800127C
:102A0000002AF5D12068143050E8001F21F00101A0
:102A100040E80012002AF5D12068143050E8001F69
:102A200021F0400140E80012002AF5D184F842303C
:102A3000256320680C3050E8001F21F0100140E8A9
:102A40000012002AF5D1E06BFEF7DAFF6663A08D75
:102A5000E18D401A81B22AE0A08DE18D401A81B249
:102A6000E08D0028A6D00029A4D022680C3252E8BC
:102A7000000F20F4907042E80007002FF5D1206885
:102A8000143050E8002F22F0010240E80027002F08
:102A9000F5D184F84230256320680C3050E8002FCF
:102AA00022F0100240E80023002BF5D16663204697
:102AB000FFF707FFF8BDFFE705062BD5150629D55B
:102AC00094F841002128F5D1A068B0F5805F01D1CC
:102AD0002069B0B1206A411C2162216800784860F9
:102AE000E08C401E0004000CE084E3D12068C16843
:102AF00021F08001C1602068C16841F04001C160DF
:102B0000D8E7206A0088C0F308004860206A801C6B
:102B10002062E5E74006CDD55006CBD5CA682046F1
:102B200022F04002CA6084F8413000F049F9C1E760
:102B3000C732000870B5040004D094F841000025A5
:102B400010B106E0012070BD84F84050204600F02E
:102B500023F8242084F841002068C16821F4005142
:102B6000C160204600F0EAFC2068016921F4904130
:102B700001612068416921F02A0141612068C16832
:102B800041F40051C1606564202084F8410084F85C
:102B900042006563002070BD2DE9F04186B000243D
:102BA00000940194029403940646DFF838C1036848
:102BB0004D48022103224D4D80274FF010086345F8
:102BC0004CD1836943F480438361836903F4804378
:102BD0000493836943F0040383618069039200F0E6
:102BE000040004900802CDE9000169462846FFF779
:102BF00087F82815CDE90004694628460294FFF7B6
:102C00007FF83C4D3A48C5E90004C5E902472C610C
:102C10006C61AC612846EC61FFF70CF808B1FEF777
:102C2000EDFEF5636E62334D314844351438C5E925
:102C300002472C616C61AC61EC61C5E90008284673
:102C4000FEF7F8FF08B1FEF7D9FEB5630022114682
:102C500025206E62FFF7AEF925203DE0DFF898C031
:102C600063453BD1C36943F40033C361C36903F4D3
:102C700000330493836943F0040383618069039202
:102C800000F0040004900420CDE9000169462846C4
:102C9000FFF736F80820CDE900046946284602947B
:102CA000FFF72EF8134D124888352830C5E9024742
:102CB0002C616C61AC61EC61C5E900082846FEF747
:102CC000B9FF08B1FEF79AFEB5630022114626202F
:102CD0006E62FFF76FF92620FFF75EF906B0BDE8D8
:102CE000F08100000038014000100240000801405F
:102CF000580002406C0100200044004090F842302F
:102D0000202B01D00220704721B11AB100230363A8
:102D100000F070BC0120704710B50446074884429B
:102D20000AD10748007800F0DDFE2046BDE81040DB
:102D300001220349FFF7E2BF10BD0000DC000020C4
:102D4000280000207047000070B5044690F841004C
:102D5000202801D0022070BD49B342B32162A28471
:102D6000E28400206064212384F84130A56B114B7C
:102D7000AB62A56B104BEB62A56B104B2B63A36B87
:102D80005863256813462A1DA06BFEF781FF216852
:102D90006FF0400008602068143050E8001F41F0D8
:102DA000800140E80012002AF5D1002070BD01200A
:102DB00070BD0000C533000807340008D732000892
:102DC00070477047FEE70000114808B5416941F0BF
:102DD000010141614069002200F0010000901146AC
:102DE0000E20FFF7E7F80E20FFF7D6F80022114675
:102DF0000F20FFF7DFF80F20FFF7CEF80022114673
:102E00001120FFF7D7F8BDE808401120FFF7C4B83C
:102E10000010024070B586B000241C480094019454
:102E200002940394816941F010018161816901F08C
:102E300010010491816941F020018161816901F0F3
:102E400020010491816941F0040181618069104E83
:102E500000F004004FF4005504900022294630464B
:102E6000FFF736F80220CDE90240009501256946BA
:102E700001953046FEF744FF41F201008DE8310034
:102E800069460448FEF73CFF06B070BD00100240E2
:102E9000001001400008014010B586B0002417481A
:102EA00000940194029403940494134905940160DE
:102EB0004721C0E901146321C0E90314446184611E
:102EC000FFF75CFB08B1FEF799FD4FF480500090CE
:102ED00069460A48FFF7DAFB08B1FEF78FFD049454
:102EE00004A906480594FFF719FB002801D0FEF756
:102EF00085FD06B010BD0000002C01404C000020F4
:102F000010B586B0002418480094019402940394EC
:102F100004941449059401604721C0E9011442F268
:102F20000F71C0E903148461FFF728FB08B1FEF7B5
:102F300065FD4FF48050009069460B48FFF7A6FBF3
:102F400008B1FEF75BFD049404A907480594FFF758
:102F5000E5FA08B1FEF752FD0348FFF76FFB06B034
:102F600010BD000000040040940000200C4810B583
:102F70000A4901604FF416514160002181600C2222
:102F8000C160C0E904128161C161FFF7D3FD00286F
:102F900003D0BDE81040FEF731BD10BD0038014040
:102FA000DC0000200C4810B50A4901604FF41651AE
:102FB0004160002181600C22C160C0E9041281617E
:102FC000C161FFF7B7FD002803D0BDE81040FEF750
:102FD00015BD10BD0044004024010020FEE7FEE7BF
:102FE00001220221032000F09BB80000F0B501236C
:102FF000274C284DFF26284FA1F10A0C06280FD296
:10300000DFE800F0030F1C2936430A2903D00B29FF
:1030100001D00C2904D1002A02D023702B703E70FD
:10302000F0BDBCF10B0FFBD2DFE80CF00707070780
:103030000707060606060700F2E7ECE7BCF10B0FF0
:10304000EED2DFE80CF007070707070706060606BB
:103050000700E5E7DFE7BCF10B0FE1D2DFE80CF09A
:10306000070707070707070706060700D8E7D2E79D
:10307000BCF10B0FD4D2DFE80CF0070707070707F6
:10308000070706060700CBE7C5E70A29C3D0F0BD4E
:1030900038000020390000203A00002008B5002147
:1030A000104600916A4602A1FDF79CF808BD000099
:1030B00025660000704730B4B0F8031044784BBA6E
:1030C000B0F805108578C27949BA0D2C1BDD0F2C9C
:1030D00019D0552C14D0B12C15D1012D13D0103A84
:1030E000022A10D2DFE802F00106427A30BC18460C
:1030F000FFF77CBF00F1080230BC1846FFF7CEBFD7
:1031000030BCFFF76DBF30BC7047704701B501227E
:1031100069460248FFF718FE08BD0000DC000020E9
:1031200070B5054616460C46EE20FFF7EFFFB120BE
:10313000FFF7ECFF1020FFF7E9FF280AFFF7E6FF93
:10314000E8B2FFF7E3FF200AFFF7E0FFE0B2FFF786
:10315000DDFF3046FFF7DAFFFF20FFF7D7FFFC2047
:10316000FFF7D4FFFF20FFF7D1FFBDE87040FF203D
:10317000FFF7CCBFFEF7B8BE30B58FB02821684648
:10318000FDF74EF814210AA8FDF74AF801210804BA
:10319000CDE900100024029402250491CDE90750E6
:1031A0004FF4E01009906846FFF712F808B172B6C4
:1031B000FEE70F20CDE90A054FF48060CDE90C4011
:1031C00002210AA80E94FEF727FF002801D072B64C
:1031D000FEE70FB030BD70470148FFF7C6BA0000E8
:1031E0004C0000200148FFF7C0BA00009400002006
:1031F00070B50268174B184C4FF08046984203D0C8
:10320000B04201D0A04203D122F070054A682A439F
:10321000984203D0B04201D0A04203D122F44074BE
:10322000CA6822434C6922F08002224302608A6805
:10323000C2620A688262984201D109690163012170
:1032400041610169C90703D0016921F001010161F0
:1032500070BD0000002C01400004004010B58468DF
:1032600042EA032224F47F440A432243826010BDD1
:10327000826822F070020A4342F0070181607047C1
:1032800010B5036A046A24F001040462846924F01E
:10329000F00444EA021423F00A020A438461026241
:1032A00010BD10B5036A046A24F010040462846936
:1032B00023F0A00324F4704444EA023243EA0111EB
:1032C0008261016210BD10B5406A0021C185C184D0
:1032D000FFF7F8FA10BD70B5446A2068406994F8A9
:1032E0004110C0F3C0100025212904D118B1E58494
:1032F000204600F0B4F82068406994F84210C0F30A
:103300008010222904D118B1E585204600F080F80C
:10331000606C40F0100060642046FFF7D3FA70BD87
:1033200010B50146406A096809684FF00002890635
:103330002ED4C28501680C3151E8003F23F480731C
:1033400041E80034002CF5D10168143151E8003F08
:1033500023F0010341E80034002CF5D10168143159
:1033600051E8003F23F0400341E80034002CF5D140
:10337000202180F84210016B012909D101680C312C
:1033800051E8003F23F0100341E80034002CF5D150
:103390004263016B012902D0FFF7BEFC10BD818D95
:1033A000FFF78FFA10BD10B5406A01214163016B30
:1033B000012902D0FFF7C6FC10BD818D4908FFF737
:1033C00080FA10BD10B50146406A0968096889068F
:1033D00016D40021C1840168143151E8002F22F075
:1033E000800241E80023002BF5D101680C3151E83F
:1033F000002F42F0400241E80023002BF5D110BD20
:10340000FFF7DEFC10BD10B5406AFFF7DAFC10BD17
:1034100001680C3151E8002F22F4907241E800233A
:10342000002BF5D10168143151E8002F22F0010280
:1034300041E80023002BF5D1016B012909D1016876
:103440000C3151E8002F22F0100241E80023002B3C
:10345000F5D1202180F842100021016370470168F6
:103460000C3151E8002F22F0C00241E80023002B6C
:10347000F5D1202180F84110704708B590F842102E
:10348000222901D0022008BD82684FF480539A425D
:1034900001D1016921B1816A9A421BD04AB10AE087
:1034A0000268816A5268C2F308020A80816A891C34
:1034B00008E0026972B10268526802F07F020A7085
:1034C000816A491C8162C18D491E0904090CC185AC
:1034D00003D01BE002685268F1E70168CA6822F075
:1034E0002002CA600168CA6822F48072CA6001685A
:1034F0004A6922F001024A61202180F8421000212D
:103500004163026B012A03D0FFF706FC002008BDCF
:10351000016301680C3151E8002F22F0100241E8EC
:103520000023002BF5D101680A68D20602D50A688B
:1035300049680091818DFFF7C4F9E7E770B504464B
:1035400000680169E26821F4405111430161216979
:10355000A0680843616908432168CA6841F20C63A6
:103560009A430243CA6020684169A26921F440710C
:10357000114341611E492068884202D1FEF7F2FDE5
:1035800001E0FEF7DFFD00EBC00101EB0012606817
:1035900064218000B2FBF0F3B3FBF1F36FF0180687
:1035A0007343B2FBF0F5B2FBF0F605EB8305322373
:1035B00003EB0515B5FBF1F5B6FBF1F605F0F005EB
:1035C00005EB0615B2FBF0F6B2FBF0F0B0FBF1F044
:1035D0006FF01802504306EB800003EB0010B0FBC5
:1035E000F1F0216800F00F002844886070BD0000F1
:1035F0000038014038B581620446828500201346B8
:103600006064222284F84220E56B1B4AAA62E56BC3
:103610001A4AEA62E56B1A4A2A63E26B50630A4669
:103620002168E06B091DFEF733FB206801684068E4
:103630000090206948B120680C3050E8001F41F428
:10364000807140E80012002AF5D12068143050E85B
:10365000001F41F0010140E80012002AF5D1206866
:10366000143050E8001F41F0400140E80012002AE9
:10367000F5D1002038BD000021330008A733000831
:10368000D73200080148FFF71FB90000DC00002016
:103690000148FFF719B9000024010020FEE70907DF
:1036A000090E002804DB00F1E02080F800147047C8
:1036B00000F00F0000F1E02080F8141D704740F288
:1036C000013200204FF0E04100F048BC024A0020E7
:1036D000110700F043BC000001FDFFFF10B50446D8
:1036E000D1E9000100F002F8206010BDF8B50446F1
:1036F0000D466A4600F0FEF800987E3000900028E3
:103700001EDC002213462046294600F0F1FA17D0AD
:10371000002140F608004FF00000064620462946EA
:1037200000F0A0FA044640F6080006EA00014FF057
:10373000000034F0004004BF0220FDF7C2FA29E087
:103740000098FF2828DB002108464FF0000000F415
:103750004006002213462046294600F08FFB8CBF0E
:10376000002501250220FDF7ACFA4FF0FF4446B1D9
:10377000002D0CBF4FF400004FF48000B04218BF82
:10378000084C042108464FF00000002D04BF84F0CF
:103790000040F8BD2046F8BD20462946BDE8F84067
:1037A00000F060BAFFFF7F7F10B504460A46D4E9F7
:1037B0000003194600F0ECF8C4E9000110BD3038F0
:1037C0000A2801D20120704700207047F0B5034657
:1037D00000F053F8154DA868EE68D3E90412471AB3
:1037E0007F1E4FF00004002F08DC0F1A002F05DCAD
:1037F000D86808186241C3E9040204E0D9680818CF
:103800007441C3E904041B605B60286805E0196922
:103810000269891A002902DD0068A842F7D14168CF
:103820004360C3E900010B60F0BD000038020020D6
:10383000084810B54FF47A71C160002181600162BF
:103840000549C16101218161FFF7C0FF00F05AF90C
:10385000002010BD50060020853B000801220249CF
:103860000248FFF74BBA000028000020DC000020CF
:1038700010B5FFF7F3FF002010BD0268002A07D043
:103880004168002904D051600A6000210160416054
:103890007047000010B500F06DF9064C06E0804757
:1038A000002802DA4FF0FF3010BD241D20680028E8
:1038B000F5D110BD3C00002070B500F0B9F80C4DFA
:1038C0002C68AC4212D0216904F10C0009B1806867
:1038D000884721680029F3D060680028F0D048604C
:1038E0000160002020606060A060E9E770BD00001A
:1038F0001000002010B5144600222260114A21F069
:1039000000439342A8BF10BD53EA000208BF10BD98
:10391000B3F5801FA8BF226807DA362200F01EFB2D
:103920006FF0350221F000432260DFF81CC06FF316
:103930001E510CEB23531A4441F0FF5141F000514A
:10394000226010BD0000F07F02FCFFFF70B50E4A40
:103950001068516842F21075A0FB054601FB056135
:10396000002300FB03110948006820185941D2E9DF
:103970000234C31A71EB040303D22B46C01841F181
:103980000001C2E9020170BD1800002024040040BB
:103990002DE9F04106460C4640F2FF75174635EA20
:1039A00014502BD000221346304600F0A1F925D048
:1039B0003A463046214600F0D1FA06460C4635EA32
:1039C000145010D000221346304600F091F915D162
:1039D0000220FDF776F9FFF779FE0A46214662F3E9
:1039E0001E01BDE8F0810220FDF76BF9FFF767FECD
:1039F0000A46214662F31E01BDE8F08130462146A9
:103A0000BDE8F081FEF778FAFFF7B6FBFFF702FAA0
:103A1000FFF7DAF9FFF740FAFFF772FAFFF7A6FAB5
:103A2000FFF7C0FAFFF736FFFFF746FFFCE700009D
:103A300070B50D4D00F094F82C68AC4212D021699D
:103A4000A868EA68081A00280CDC2046FFF715FF72
:103A5000A06910B12046FFF7B9FED4E90721A0689C
:103A60009047E9E770BD000038020020F0B51C4D1A
:103A700000273A46194CB5F800C019E0664506D053
:103A8000174A121DB25C761CC6F308036B802388AC
:103A90000BB9EE2A0CD18B4202D2C2545B1C23809C
:103AA000636842EA032303F540366360761C11D055
:103AB0006E88ACEB060303F500734FEAE37E03EB7D
:103AC000DE5E6FF3080EA3EB0E031B041B0CD5D1B7
:103AD0000020F0BD208867602780F0BD2C0000200A
:103AE00048020020064910B50B884C885A1CC2F3C6
:103AF0000802944202D00C1D18550A8010BD000027
:103B000048020020064844F62061C160002181601F
:103B100001620449C16101218161FFF757BE0000C4
:103B200078060020293B000810B540210A48FFF71D
:103B30009DFF010006D008484078072802D00648BB
:103B4000FFF7B9FA05490878421C0A70042801D920
:103B50000020087010BD0000A006002048000020D2
:103B600000B5FFF7F3FE024A9060D16000BD00008F
:103B700038020020024800604060FFF7F1BF0000FB
:103B8000380200207FB500250095019502954FF47D
:103B900000511B480395FEF793F91A4C2078002832
:103BA0002CD07B208DF800008DF8010009208DF8C5
:103BB0000200A0788DF8030003208DF80400012096
:103BC0008DF80500A1788DF806108DF80700617852
:103BD0008DF808108DF809006846FDF7DAFE8DF8BB
:103BE0000A007D208DF80B008DF80C000D2269462F
:103BF0000548FFF7A9F825706570A5707FBD000026
:103C000000100140380000202401002010B50029D8
:103C10000AD00878002807D005487844FDF78CFAC8
:103C2000002801D0002010BD0248784410BD0000DB
:103C3000CA040000C204000010B500290AD00878A8
:103C4000002807D005487844FDF776FA002801D00F
:103C5000002010BD0248784410BD0000BA040000E6
:103C6000B204000021F00042A2F16052B2F5801FC0
:103C700001F0004328BFD2F17F6C0BD95FEA001C32
:103C800043EAC20242EB507018BF704728BF20F0D1
:103C900001007047B2F5801FBCBF184670474FEA5D
:103CA000410C1CF5001F02D2084600F01DB970B58A
:103CB00000F096F800000089FFF7F6BF4FF00040D3
:103CC000A0F580007047000002494FF0000000F0AE
:103CD00013B900BF0000F87F491058BFC1F140413F
:103CE0005B1058BFC3F140438B42EFF30080704735
:103CF00051EA030C17D41CF5801F58BFBCF5801F78
:103D000000F10680994218BF704708BF9042704783
:103D100007D711F5801F58BF13F5801F19D499429A
:103D20007047894270471CF5801F08D5BCF5801F7D
:103D3000F7D58B4218BF704708BF824270474FF4D7
:103D4000001C1CEB410F38BF1CEB430F01D28B4210
:103D5000704770B500F044F8922449004FF00051CC
:103D60004FF08053FFF7B8BF51EA030C17D41CF58E
:103D7000801F58BFBCF5801F00F10680994218BF14
:103D8000704708BF9042704707D711F5801F58BF92
:103D900013F5801F19D499427047894270471CF56A
:103DA000801F08D5BCF5801FF7D58B4218BF704720
:103DB00008BF824270474FF4001C1CEB410F38BF14
:103DC0001CEB430F01D28B42704770B500F008F82E
:103DD000922449004FF000514FF08053FFF77CBF11
:103DE0000EF1020E2EF0030E5EF8046B364205D47F
:103DF000012A43EB030515F5001F12D8012841EBFA
:103E0000010C1CF5001F0CD80ED14FEAD17C15F522
:103E1000001F0CEB4C0C0CF1020C08BF4CEBD37CDC
:103E200004E04FF0080C01E04FEAD37C0CEB4C05AA
:103E300026FA05F606F00706B6F1040C06D20EEBDC
:103E4000860CBDE870404CF0010C6047DFE80CF0D8
:103E5000090B02024FF000414FF00000A1F50021D4
:103E600070BD19461046012851EB010418BFD4F566
:103E7000001484BF002001F0004170BD53EA010C22
:103E800017D41CF5801F58BFBCF5801F00F10680B9
:103E90008B4218BF704708BF8242704707D713F59F
:103EA000801F58BF11F5801F19D48B4270479B4269
:103EB00070471CF5801F08D5BCF5801FF7D59942C7
:103EC00018BF704708BF904270474FF4001C1CEBAE
:103ED000430F38BF1CEB410F01D2994270470FB41A
:103EE0000CBC03BCFFF771BFFF2141EAD050C005F5
:103EF00070474FF0000070470CF00F03092B08BF0C
:103F0000082000F05F800A2B0BD0082B18BF7047E9
:103F100008BF1CF0400F0AD04FF000004FF0000126
:103F200070471CF0400F18BF4FF0004070471CF066
:103F3000100F08D020F0704300F07F4242EAD30116
:103F40004FEA4370704700F0604021F07F4242EA40
:103F5000000201F07F4040EA727070474FF0FF0CA2
:103F60004CF4E06C1CEA11531CBF9CEA030C944512
:103F7000C2BFDA4201EB02517047002B0DD0BCF1F9
:103F8000000F0FD0002A01F00041A4BF41F0E04132
:103F900041F07F614FF00000704701F000414FF0A9
:103FA0000000704750EA01334FF09B0C18BF4CF0F3
:103FB000806C7FF489AE7047FCF782BAFCF788BE4C
:103FC000FDF716B81CF4801F11D01CF4E02F03D0AD
:103FD0006FEACC31490070474FF04050EFF3008258
:103FE00022F0704242EA000282F3008870474FF0EC
:103FF00000007047010202030405060708090A0BC6
:104000000C0D0E0F10100000000000000000010257
:104010000304060708090000000001020304000071
:1040200002400000000000A0000000000540000069
:10403000000000C8000000000C4000000000409C90
:1040400000000000194000000020BCBE000000007D
:1040500034400000BFC91B8E00000004B5400000C2
:10406000504BCFD06607E2CF010000006C4100004A
:104070003E8251AADFEEA73401000000D9420000C1
:10408000DCB5A0E23A301F97FFFFFFFFB445000008
:10409000FD25A0C8E9A3C14FFFFFFFFFFF3F0000C0
:1040A0000000008000000000FF3F000000000080D2
:1040B0000000000010420008000000204C0000003A
:1040C000280100085C4200084C000020F40C0000AD
:1040D00044010008000000000000F07FFFFFFFFF28
:1040E000FFFFEF7F1C00000043000000F8FFFFFF10
:1040F0000C0000000E0000000F0000002E00000069
:104100001001000043000000F8FFFFFF00404040A6
:10411000404040404040414141414140404040409A
:104120004040404040404040404040404005020246
:104130000202020202020202020202020220202005
:104140002020202020202002020202020202909061
:10415000909090901010101010101010101010105F
:1041600010101010101010100202020202028888B3
:1041700088888888080808080808080808080808BF
:1041800008080808080808080202020240000000A7
:10419000000000000000000000000000000000001F
:1041A000000000000000000000000000000000000F
:1041B00000000000000000000000000000000000FF
:1041C00000000000000000000000000000000000EF
:1041D00000000000000000000000000000000000DF
:1041E00000000000000000000000000000000000CF
:1041F00000000000000000000000000000000000BF
:1042000000000000000000000000000000000000AE
:1042100001000000100000000000000000127A0001
:10422000100000201000002000000000000000002E
:10423000000000000000000000000000000000007E
:1042400000000000000000000000000071380008BD
:0C425000313800080000000000000000F1
:04000005080000ED02
:00000001FF
